{
  "_format": "hh-sol-artifact-1",
  "contractName": "cricketer",
  "sourceName": "contracts/cricketer.sol",
  "abi": [
    {
      "inputs": [],
      "stateMutability": "nonpayable",
      "type": "constructor"
    },
    {
      "inputs": [],
      "name": "ApprovalCallerNotOwnerNorApproved",
      "type": "error"
    },
    {
      "inputs": [],
      "name": "ApprovalQueryForNonexistentToken",
      "type": "error"
    },
    {
      "inputs": [],
      "name": "BalanceQueryForZeroAddress",
      "type": "error"
    },
    {
      "inputs": [],
      "name": "MintERC2309QuantityExceedsLimit",
      "type": "error"
    },
    {
      "inputs": [],
      "name": "MintToZeroAddress",
      "type": "error"
    },
    {
      "inputs": [],
      "name": "MintZeroQuantity",
      "type": "error"
    },
    {
      "inputs": [],
      "name": "OwnerQueryForNonexistentToken",
      "type": "error"
    },
    {
      "inputs": [],
      "name": "OwnershipNotInitializedForExtraData",
      "type": "error"
    },
    {
      "inputs": [],
      "name": "TransferCallerNotOwnerNorApproved",
      "type": "error"
    },
    {
      "inputs": [],
      "name": "TransferFromIncorrectOwner",
      "type": "error"
    },
    {
      "inputs": [],
      "name": "TransferToNonERC721ReceiverImplementer",
      "type": "error"
    },
    {
      "inputs": [],
      "name": "TransferToZeroAddress",
      "type": "error"
    },
    {
      "inputs": [],
      "name": "URIQueryForNonexistentToken",
      "type": "error"
    },
    {
      "anonymous": false,
      "inputs": [
        {
          "indexed": true,
          "internalType": "address",
          "name": "owner",
          "type": "address"
        },
        {
          "indexed": true,
          "internalType": "address",
          "name": "approved",
          "type": "address"
        },
        {
          "indexed": true,
          "internalType": "uint256",
          "name": "tokenId",
          "type": "uint256"
        }
      ],
      "name": "Approval",
      "type": "event"
    },
    {
      "anonymous": false,
      "inputs": [
        {
          "indexed": true,
          "internalType": "address",
          "name": "owner",
          "type": "address"
        },
        {
          "indexed": true,
          "internalType": "address",
          "name": "operator",
          "type": "address"
        },
        {
          "indexed": false,
          "internalType": "bool",
          "name": "approved",
          "type": "bool"
        }
      ],
      "name": "ApprovalForAll",
      "type": "event"
    },
    {
      "anonymous": false,
      "inputs": [
        {
          "indexed": true,
          "internalType": "uint256",
          "name": "fromTokenId",
          "type": "uint256"
        },
        {
          "indexed": false,
          "internalType": "uint256",
          "name": "toTokenId",
          "type": "uint256"
        },
        {
          "indexed": true,
          "internalType": "address",
          "name": "from",
          "type": "address"
        },
        {
          "indexed": true,
          "internalType": "address",
          "name": "to",
          "type": "address"
        }
      ],
      "name": "ConsecutiveTransfer",
      "type": "event"
    },
    {
      "anonymous": false,
      "inputs": [
        {
          "indexed": true,
          "internalType": "address",
          "name": "from",
          "type": "address"
        },
        {
          "indexed": true,
          "internalType": "address",
          "name": "to",
          "type": "address"
        },
        {
          "indexed": true,
          "internalType": "uint256",
          "name": "tokenId",
          "type": "uint256"
        }
      ],
      "name": "Transfer",
      "type": "event"
    },
    {
      "inputs": [
        {
          "internalType": "address",
          "name": "to",
          "type": "address"
        },
        {
          "internalType": "uint256",
          "name": "tokenId",
          "type": "uint256"
        }
      ],
      "name": "approve",
      "outputs": [],
      "stateMutability": "payable",
      "type": "function"
    },
    {
      "inputs": [
        {
          "internalType": "address",
          "name": "owner",
          "type": "address"
        }
      ],
      "name": "balanceOf",
      "outputs": [
        {
          "internalType": "uint256",
          "name": "",
          "type": "uint256"
        }
      ],
      "stateMutability": "view",
      "type": "function"
    },
    {
      "inputs": [
        {
          "internalType": "uint256",
          "name": "tokenId",
          "type": "uint256"
        }
      ],
      "name": "getApproved",
      "outputs": [
        {
          "internalType": "address",
          "name": "",
          "type": "address"
        }
      ],
      "stateMutability": "view",
      "type": "function"
    },
    {
      "inputs": [
        {
          "internalType": "address",
          "name": "owner",
          "type": "address"
        },
        {
          "internalType": "address",
          "name": "operator",
          "type": "address"
        }
      ],
      "name": "isApprovedForAll",
      "outputs": [
        {
          "internalType": "bool",
          "name": "",
          "type": "bool"
        }
      ],
      "stateMutability": "view",
      "type": "function"
    },
    {
      "inputs": [],
      "name": "maxQuantity",
      "outputs": [
        {
          "internalType": "uint256",
          "name": "",
          "type": "uint256"
        }
      ],
      "stateMutability": "view",
      "type": "function"
    },
    {
      "inputs": [
        {
          "internalType": "uint256",
          "name": "quantity",
          "type": "uint256"
        }
      ],
      "name": "mint",
      "outputs": [],
      "stateMutability": "payable",
      "type": "function"
    },
    {
      "inputs": [],
      "name": "name",
      "outputs": [
        {
          "internalType": "string",
          "name": "",
          "type": "string"
        }
      ],
      "stateMutability": "view",
      "type": "function"
    },
    {
      "inputs": [],
      "name": "owner",
      "outputs": [
        {
          "internalType": "address",
          "name": "",
          "type": "address"
        }
      ],
      "stateMutability": "view",
      "type": "function"
    },
    {
      "inputs": [
        {
          "internalType": "uint256",
          "name": "tokenId",
          "type": "uint256"
        }
      ],
      "name": "ownerOf",
      "outputs": [
        {
          "internalType": "address",
          "name": "",
          "type": "address"
        }
      ],
      "stateMutability": "view",
      "type": "function"
    },
    {
      "inputs": [],
      "name": "prompt",
      "outputs": [
        {
          "internalType": "string",
          "name": "",
          "type": "string"
        }
      ],
      "stateMutability": "view",
      "type": "function"
    },
    {
      "inputs": [],
      "name": "promptDescription",
      "outputs": [
        {
          "internalType": "string",
          "name": "",
          "type": "string"
        }
      ],
      "stateMutability": "view",
      "type": "function"
    },
    {
      "inputs": [
        {
          "internalType": "address",
          "name": "from",
          "type": "address"
        },
        {
          "internalType": "address",
          "name": "to",
          "type": "address"
        },
        {
          "internalType": "uint256",
          "name": "tokenId",
          "type": "uint256"
        }
      ],
      "name": "safeTransferFrom",
      "outputs": [],
      "stateMutability": "payable",
      "type": "function"
    },
    {
      "inputs": [
        {
          "internalType": "address",
          "name": "from",
          "type": "address"
        },
        {
          "internalType": "address",
          "name": "to",
          "type": "address"
        },
        {
          "internalType": "uint256",
          "name": "tokenId",
          "type": "uint256"
        },
        {
          "internalType": "bytes",
          "name": "_data",
          "type": "bytes"
        }
      ],
      "name": "safeTransferFrom",
      "outputs": [],
      "stateMutability": "payable",
      "type": "function"
    },
    {
      "inputs": [
        {
          "internalType": "address",
          "name": "operator",
          "type": "address"
        },
        {
          "internalType": "bool",
          "name": "approved",
          "type": "bool"
        }
      ],
      "name": "setApprovalForAll",
      "outputs": [],
      "stateMutability": "nonpayable",
      "type": "function"
    },
    {
      "inputs": [
        {
          "internalType": "bytes4",
          "name": "interfaceId",
          "type": "bytes4"
        }
      ],
      "name": "supportsInterface",
      "outputs": [
        {
          "internalType": "bool",
          "name": "",
          "type": "bool"
        }
      ],
      "stateMutability": "view",
      "type": "function"
    },
    {
      "inputs": [],
      "name": "symbol",
      "outputs": [
        {
          "internalType": "string",
          "name": "",
          "type": "string"
        }
      ],
      "stateMutability": "view",
      "type": "function"
    },
    {
      "inputs": [
        {
          "internalType": "uint256",
          "name": "tokenId",
          "type": "uint256"
        }
      ],
      "name": "tokenURI",
      "outputs": [
        {
          "internalType": "string",
          "name": "",
          "type": "string"
        }
      ],
      "stateMutability": "view",
      "type": "function"
    },
    {
      "inputs": [],
      "name": "totalSupply",
      "outputs": [
        {
          "internalType": "uint256",
          "name": "",
          "type": "uint256"
        }
      ],
      "stateMutability": "view",
      "type": "function"
    },
    {
      "inputs": [
        {
          "internalType": "address",
          "name": "from",
          "type": "address"
        },
        {
          "internalType": "address",
          "name": "to",
          "type": "address"
        },
        {
          "internalType": "uint256",
          "name": "tokenId",
          "type": "uint256"
        }
      ],
      "name": "transferFrom",
      "outputs": [],
      "stateMutability": "payable",
      "type": "function"
    }
  ],
  "bytecode": "0x60806040526005600955604051806080016040528060518152602001620024c360519139600a9081620000339190620003db565b506040518060600160405280603281526020016200251460329139600b90816200005e9190620003db565b503480156200006c57600080fd5b506040518060400160405280600981526020017f637269636b6574657200000000000000000000000000000000000000000000008152506040518060400160405280600381526020017f43525400000000000000000000000000000000000000000000000000000000008152508160029081620000ea9190620003db565b508060039081620000fc9190620003db565b506200010d6200015c60201b60201c565b600081905550505033600860006101000a81548173ffffffffffffffffffffffffffffffffffffffff021916908373ffffffffffffffffffffffffffffffffffffffff160217905550620004c2565b600090565b600081519050919050565b7f4e487b7100000000000000000000000000000000000000000000000000000000600052604160045260246000fd5b7f4e487b7100000000000000000000000000000000000000000000000000000000600052602260045260246000fd5b60006002820490506001821680620001e357607f821691505b602082108103620001f957620001f86200019b565b5b50919050565b60008190508160005260206000209050919050565b60006020601f8301049050919050565b600082821b905092915050565b600060088302620002637fffffffffffffffffffffffffffffffffffffffffffffffffffffffffffffffff8262000224565b6200026f868362000224565b95508019841693508086168417925050509392505050565b6000819050919050565b6000819050919050565b6000620002bc620002b6620002b08462000287565b62000291565b62000287565b9050919050565b6000819050919050565b620002d8836200029b565b620002f0620002e782620002c3565b84845462000231565b825550505050565b600090565b62000307620002f8565b62000314818484620002cd565b505050565b5b818110156200033c5762000330600082620002fd565b6001810190506200031a565b5050565b601f8211156200038b576200035581620001ff565b620003608462000214565b8101602085101562000370578190505b620003886200037f8562000214565b83018262000319565b50505b505050565b600082821c905092915050565b6000620003b06000198460080262000390565b1980831691505092915050565b6000620003cb83836200039d565b9150826002028217905092915050565b620003e68262000161565b67ffffffffffffffff8111156200040257620004016200016c565b5b6200040e8254620001ca565b6200041b82828562000340565b600060209050601f8311600181146200045357600084156200043e578287015190505b6200044a8582620003bd565b865550620004ba565b601f1984166200046386620001ff565b60005b828110156200048d5784890151825560018201915060208501945060208101905062000466565b86831015620004ad5784890151620004a9601f8916826200039d565b8355505b6001600288020188555050505b505050505050565b611ff180620004d26000396000f3fe6080604052600436106101145760003560e01c80637c65d711116100a0578063a22cb46511610064578063a22cb4651461037f578063b88d4fde146103a8578063c87b56dd146103c4578063e640cf7d14610401578063e985e9c51461042c57610114565b80637c65d711146102b75780638da5cb5b146102e2578063953637311461030d57806395d89b4114610338578063a0712d681461036357610114565b806318160ddd116100e757806318160ddd146101da57806323b872dd1461020557806342842e0e146102215780636352211e1461023d57806370a082311461027a57610114565b806301ffc9a71461011957806306fdde0314610156578063081812fc14610181578063095ea7b3146101be575b600080fd5b34801561012557600080fd5b50610140600480360381019061013b9190611769565b610469565b60405161014d91906117b1565b60405180910390f35b34801561016257600080fd5b5061016b6104fb565b604051610178919061185c565b60405180910390f35b34801561018d57600080fd5b506101a860048036038101906101a391906118b4565b61058d565b6040516101b59190611922565b60405180910390f35b6101d860048036038101906101d39190611969565b61060c565b005b3480156101e657600080fd5b506101ef610750565b6040516101fc91906119b8565b60405180910390f35b61021f600480360381019061021a91906119d3565b610767565b005b61023b600480360381019061023691906119d3565b610a89565b005b34801561024957600080fd5b50610264600480360381019061025f91906118b4565b610aa9565b6040516102719190611922565b60405180910390f35b34801561028657600080fd5b506102a1600480360381019061029c9190611a26565b610abb565b6040516102ae91906119b8565b60405180910390f35b3480156102c357600080fd5b506102cc610b73565b6040516102d9919061185c565b60405180910390f35b3480156102ee57600080fd5b506102f7610c01565b6040516103049190611922565b60405180910390f35b34801561031957600080fd5b50610322610c27565b60405161032f919061185c565b60405180910390f35b34801561034457600080fd5b5061034d610cb9565b60405161035a919061185c565b60405180910390f35b61037d600480360381019061037891906118b4565b610d4b565b005b34801561038b57600080fd5b506103a660048036038101906103a19190611a7f565b610e3f565b005b6103c260048036038101906103bd9190611bf4565b610f4a565b005b3480156103d057600080fd5b506103eb60048036038101906103e691906118b4565b610fbd565b6040516103f8919061185c565b60405180910390f35b34801561040d57600080fd5b5061041661105b565b60405161042391906119b8565b60405180910390f35b34801561043857600080fd5b50610453600480360381019061044e9190611c77565b611061565b60405161046091906117b1565b60405180910390f35b60006301ffc9a760e01b827bffffffffffffffffffffffffffffffffffffffffffffffffffffffff191614806104c457506380ac58cd60e01b827bffffffffffffffffffffffffffffffffffffffffffffffffffffffff1916145b806104f45750635b5e139f60e01b827bffffffffffffffffffffffffffffffffffffffffffffffffffffffff1916145b9050919050565b60606002805461050a90611ce6565b80601f016020809104026020016040519081016040528092919081815260200182805461053690611ce6565b80156105835780601f1061055857610100808354040283529160200191610583565b820191906000526020600020905b81548152906001019060200180831161056657829003601f168201915b5050505050905090565b6000610598826110f5565b6105ce576040517fcf4700e400000000000000000000000000000000000000000000000000000000815260040160405180910390fd5b6006600083815260200190815260200160002060000160009054906101000a900473ffffffffffffffffffffffffffffffffffffffff169050919050565b600061061782610aa9565b90508073ffffffffffffffffffffffffffffffffffffffff16610638611154565b73ffffffffffffffffffffffffffffffffffffffff161461069b576106648161065f611154565b611061565b61069a576040517fcfb3b94200000000000000000000000000000000000000000000000000000000815260040160405180910390fd5b5b826006600084815260200190815260200160002060000160006101000a81548173ffffffffffffffffffffffffffffffffffffffff021916908373ffffffffffffffffffffffffffffffffffffffff160217905550818373ffffffffffffffffffffffffffffffffffffffff168273ffffffffffffffffffffffffffffffffffffffff167f8c5be1e5ebec7d5bd14f71427d1e84f3dd0314c0f7b2291e5b200ac8c7c3b92560405160405180910390a4505050565b600061075a61115c565b6001546000540303905090565b600061077282611161565b90508373ffffffffffffffffffffffffffffffffffffffff168173ffffffffffffffffffffffffffffffffffffffff16146107d9576040517fa114810000000000000000000000000000000000000000000000000000000000815260040160405180910390fd5b6000806107e58461122d565b915091506107fb81876107f6611154565b611254565b610847576108108661080b611154565b611061565b610846576040517f59c896be00000000000000000000000000000000000000000000000000000000815260040160405180910390fd5b5b600073ffffffffffffffffffffffffffffffffffffffff168573ffffffffffffffffffffffffffffffffffffffff16036108ad576040517fea553b3400000000000000000000000000000000000000000000000000000000815260040160405180910390fd5b6108ba8686866001611298565b80156108c557600082555b600560008773ffffffffffffffffffffffffffffffffffffffff1673ffffffffffffffffffffffffffffffffffffffff168152602001908152602001600020600081546001900391905081905550600560008673ffffffffffffffffffffffffffffffffffffffff1673ffffffffffffffffffffffffffffffffffffffff16815260200190815260200160002060008154600101919050819055506109938561096f88888761129e565b7c0200000000000000000000000000000000000000000000000000000000176112c6565b600460008681526020019081526020016000208190555060007c0200000000000000000000000000000000000000000000000000000000841603610a195760006001850190506000600460008381526020019081526020016000205403610a17576000548114610a16578360046000838152602001908152602001600020819055505b5b505b838573ffffffffffffffffffffffffffffffffffffffff168773ffffffffffffffffffffffffffffffffffffffff167fddf252ad1be2c89b69c2b068fc378daa952ba7f163c4a11628f55a4df523b3ef60405160405180910390a4610a8186868660016112f1565b505050505050565b610aa483838360405180602001604052806000815250610f4a565b505050565b6000610ab482611161565b9050919050565b60008073ffffffffffffffffffffffffffffffffffffffff168273ffffffffffffffffffffffffffffffffffffffff1603610b22576040517f8f4eb60400000000000000000000000000000000000000000000000000000000815260040160405180910390fd5b67ffffffffffffffff600560008473ffffffffffffffffffffffffffffffffffffffff1673ffffffffffffffffffffffffffffffffffffffff16815260200190815260200160002054169050919050565b600b8054610b8090611ce6565b80601f0160208091040260200160405190810160405280929190818152602001828054610bac90611ce6565b8015610bf95780601f10610bce57610100808354040283529160200191610bf9565b820191906000526020600020905b815481529060010190602001808311610bdc57829003601f168201915b505050505081565b600860009054906101000a900473ffffffffffffffffffffffffffffffffffffffff1681565b6060600b8054610c3690611ce6565b80601f0160208091040260200160405190810160405280929190818152602001828054610c6290611ce6565b8015610caf5780601f10610c8457610100808354040283529160200191610caf565b820191906000526020600020905b815481529060010190602001808311610c9257829003601f168201915b5050505050905090565b606060038054610cc890611ce6565b80601f0160208091040260200160405190810160405280929190818152602001828054610cf490611ce6565b8015610d415780601f10610d1657610100808354040283529160200191610d41565b820191906000526020600020905b815481529060010190602001808311610d2457829003601f168201915b5050505050905090565b600860009054906101000a900473ffffffffffffffffffffffffffffffffffffffff1673ffffffffffffffffffffffffffffffffffffffff163373ffffffffffffffffffffffffffffffffffffffff1614610ddb576040517f08c379a0000000000000000000000000000000000000000000000000000000008152600401610dd290611d89565b60405180910390fd5b60095481610de7610750565b610df19190611dd8565b1115610e32576040517f08c379a0000000000000000000000000000000000000000000000000000000008152600401610e2990611e58565b60405180910390fd5b610e3c33826112f7565b50565b8060076000610e4c611154565b73ffffffffffffffffffffffffffffffffffffffff1673ffffffffffffffffffffffffffffffffffffffff16815260200190815260200160002060008473ffffffffffffffffffffffffffffffffffffffff1673ffffffffffffffffffffffffffffffffffffffff16815260200190815260200160002060006101000a81548160ff0219169083151502179055508173ffffffffffffffffffffffffffffffffffffffff16610ef9611154565b73ffffffffffffffffffffffffffffffffffffffff167f17307eab39ab6107e8899845ad3d59bd9653f200f220920489ca2b5937696c3183604051610f3e91906117b1565b60405180910390a35050565b610f55848484610767565b60008373ffffffffffffffffffffffffffffffffffffffff163b14610fb757610f80848484846114b2565b610fb6576040517fd1a57ed600000000000000000000000000000000000000000000000000000000815260040160405180910390fd5b5b50505050565b6060610fc8826110f5565b610ffe576040517fa14c4b5000000000000000000000000000000000000000000000000000000000815260040160405180910390fd5b6000611008611602565b905060008151036110285760405180602001604052806000815250611053565b8061103284611694565b604051602001611043929190611eb4565b6040516020818303038152906040525b915050919050565b60095481565b6000600760008473ffffffffffffffffffffffffffffffffffffffff1673ffffffffffffffffffffffffffffffffffffffff16815260200190815260200160002060008373ffffffffffffffffffffffffffffffffffffffff1673ffffffffffffffffffffffffffffffffffffffff16815260200190815260200160002060009054906101000a900460ff16905092915050565b60008161110061115c565b1115801561110f575060005482105b801561114d575060007c0100000000000000000000000000000000000000000000000000000000600460008581526020019081526020016000205416145b9050919050565b600033905090565b600090565b6000808290508061117061115c565b116111f6576000548110156111f55760006004600083815260200190815260200160002054905060007c01000000000000000000000000000000000000000000000000000000008216036111f3575b600081036111e95760046000836001900393508381526020019081526020016000205490506111bf565b8092505050611228565b505b5b6040517fdf2d9b4200000000000000000000000000000000000000000000000000000000815260040160405180910390fd5b919050565b60008060006006600085815260200190815260200160002090508092508254915050915091565b600073ffffffffffffffffffffffffffffffffffffffff8316925073ffffffffffffffffffffffffffffffffffffffff821691508382148383141790509392505050565b50505050565b60008060e883901c905060e86112b58686846116e4565b62ffffff16901b9150509392505050565b600073ffffffffffffffffffffffffffffffffffffffff83169250814260a01b178317905092915050565b50505050565b60008054905060008203611337576040517fb562e8dd00000000000000000000000000000000000000000000000000000000815260040160405180910390fd5b6113446000848385611298565b600160406001901b178202600560008573ffffffffffffffffffffffffffffffffffffffff1673ffffffffffffffffffffffffffffffffffffffff168152602001908152602001600020600082825401925050819055506113bb836113ac600086600061129e565b6113b5856116ed565b176112c6565b6004600083815260200190815260200160002081905550600080838301905073ffffffffffffffffffffffffffffffffffffffff85169150828260007fddf252ad1be2c89b69c2b068fc378daa952ba7f163c4a11628f55a4df523b3ef600080a4600183015b81811461145c57808360007fddf252ad1be2c89b69c2b068fc378daa952ba7f163c4a11628f55a4df523b3ef600080a4600181019050611421565b5060008203611497576040517f2e07630000000000000000000000000000000000000000000000000000000000815260040160405180910390fd5b8060008190555050506114ad60008483856112f1565b505050565b60008373ffffffffffffffffffffffffffffffffffffffff1663150b7a026114d8611154565b8786866040518563ffffffff1660e01b81526004016114fa9493929190611f2d565b6020604051808303816000875af192505050801561153657506040513d601f19601f820116820180604052508101906115339190611f8e565b60015b6115af573d8060008114611566576040519150601f19603f3d011682016040523d82523d6000602084013e61156b565b606091505b5060008151036115a7576040517fd1a57ed600000000000000000000000000000000000000000000000000000000815260040160405180910390fd5b805181602001fd5b63150b7a0260e01b7bffffffffffffffffffffffffffffffffffffffffffffffffffffffff1916817bffffffffffffffffffffffffffffffffffffffffffffffffffffffff191614915050949350505050565b6060600a805461161190611ce6565b80601f016020809104026020016040519081016040528092919081815260200182805461163d90611ce6565b801561168a5780601f1061165f5761010080835404028352916020019161168a565b820191906000526020600020905b81548152906001019060200180831161166d57829003601f168201915b5050505050905090565b606060a060405101806040526020810391506000825281835b6001156116cf57600184039350600a81066030018453600a81049050806116ad575b50828103602084039350808452505050919050565b60009392505050565b60006001821460e11b9050919050565b6000604051905090565b600080fd5b600080fd5b60007fffffffff0000000000000000000000000000000000000000000000000000000082169050919050565b61174681611711565b811461175157600080fd5b50565b6000813590506117638161173d565b92915050565b60006020828403121561177f5761177e611707565b5b600061178d84828501611754565b91505092915050565b60008115159050919050565b6117ab81611796565b82525050565b60006020820190506117c660008301846117a2565b92915050565b600081519050919050565b600082825260208201905092915050565b60005b838110156118065780820151818401526020810190506117eb565b60008484015250505050565b6000601f19601f8301169050919050565b600061182e826117cc565b61183881856117d7565b93506118488185602086016117e8565b61185181611812565b840191505092915050565b600060208201905081810360008301526118768184611823565b905092915050565b6000819050919050565b6118918161187e565b811461189c57600080fd5b50565b6000813590506118ae81611888565b92915050565b6000602082840312156118ca576118c9611707565b5b60006118d88482850161189f565b91505092915050565b600073ffffffffffffffffffffffffffffffffffffffff82169050919050565b600061190c826118e1565b9050919050565b61191c81611901565b82525050565b60006020820190506119376000830184611913565b92915050565b61194681611901565b811461195157600080fd5b50565b6000813590506119638161193d565b92915050565b600080604083850312156119805761197f611707565b5b600061198e85828601611954565b925050602061199f8582860161189f565b9150509250929050565b6119b28161187e565b82525050565b60006020820190506119cd60008301846119a9565b92915050565b6000806000606084860312156119ec576119eb611707565b5b60006119fa86828701611954565b9350506020611a0b86828701611954565b9250506040611a1c8682870161189f565b9150509250925092565b600060208284031215611a3c57611a3b611707565b5b6000611a4a84828501611954565b91505092915050565b611a5c81611796565b8114611a6757600080fd5b50565b600081359050611a7981611a53565b92915050565b60008060408385031215611a9657611a95611707565b5b6000611aa485828601611954565b9250506020611ab585828601611a6a565b9150509250929050565b600080fd5b600080fd5b7f4e487b7100000000000000000000000000000000000000000000000000000000600052604160045260246000fd5b611b0182611812565b810181811067ffffffffffffffff82111715611b2057611b1f611ac9565b5b80604052505050565b6000611b336116fd565b9050611b3f8282611af8565b919050565b600067ffffffffffffffff821115611b5f57611b5e611ac9565b5b611b6882611812565b9050602081019050919050565b82818337600083830152505050565b6000611b97611b9284611b44565b611b29565b905082815260208101848484011115611bb357611bb2611ac4565b5b611bbe848285611b75565b509392505050565b600082601f830112611bdb57611bda611abf565b5b8135611beb848260208601611b84565b91505092915050565b60008060008060808587031215611c0e57611c0d611707565b5b6000611c1c87828801611954565b9450506020611c2d87828801611954565b9350506040611c3e8782880161189f565b925050606085013567ffffffffffffffff811115611c5f57611c5e61170c565b5b611c6b87828801611bc6565b91505092959194509250565b60008060408385031215611c8e57611c8d611707565b5b6000611c9c85828601611954565b9250506020611cad85828601611954565b9150509250929050565b7f4e487b7100000000000000000000000000000000000000000000000000000000600052602260045260246000fd5b60006002820490506001821680611cfe57607f821691505b602082108103611d1157611d10611cb7565b5b50919050565b7f4f6e6c79206f776e65722063616e20706572666f726d2074686973206163746960008201527f6f6e210000000000000000000000000000000000000000000000000000000000602082015250565b6000611d736023836117d7565b9150611d7e82611d17565b604082019050919050565b60006020820190508181036000830152611da281611d66565b9050919050565b7f4e487b7100000000000000000000000000000000000000000000000000000000600052601160045260246000fd5b6000611de38261187e565b9150611dee8361187e565b9250828201905080821115611e0657611e05611da9565b5b92915050565b7f596f752063616e206e6f74206d696e74206d6f7265207468616e203500000000600082015250565b6000611e42601c836117d7565b9150611e4d82611e0c565b602082019050919050565b60006020820190508181036000830152611e7181611e35565b9050919050565b600081905092915050565b6000611e8e826117cc565b611e988185611e78565b9350611ea88185602086016117e8565b80840191505092915050565b6000611ec08285611e83565b9150611ecc8284611e83565b91508190509392505050565b600081519050919050565b600082825260208201905092915050565b6000611eff82611ed8565b611f098185611ee3565b9350611f198185602086016117e8565b611f2281611812565b840191505092915050565b6000608082019050611f426000830187611913565b611f4f6020830186611913565b611f5c60408301856119a9565b8181036060830152611f6e8184611ef4565b905095945050505050565b600081519050611f888161173d565b92915050565b600060208284031215611fa457611fa3611707565b5b6000611fb284828501611f79565b9150509291505056fea2646970667358221220f7530ac9bca2ede37de17fd7f2f8407858a93db2252944f041b57affe08c927464736f6c6343000812003368747470733a2f2f676174657761792e70696e6174612e636c6f75642f697066732f516d635833516f4855326b534a7745616342447158704c4a335868454766336361777066666a617247774d7161512f4120637269636b657465722077656172696e6720626c7565206a6572736579206368656572696e67207468652063726f7764",
  "linkReferences": {},
  "deployedLinkReferences": {}
}